:040000008A11B42D80
:100B680083018A114B2FF000B92D831203138C1CBB
:100B7800BE2DBF2DB92DC02D700895000800831219
:100B88000313971CC82DC92DCD2D17121716CD2D5F
:100B9800CD2D8C1ED02DD12DCD2DD22D1408D42D98
:100BA8000800F50083120313071174087F3E8A11A9
:100BB800A0268A1175083F3E8A11A0268A11831241
:100BC8000313071508008312031387152730F50050
:100BD800F530F400F40BEE2DF50BEE2D21308A11D3
:100BE800A0268A11C0308A11A0268A1113308A11D2
:100BF800A0268A1120308A11A0268A110C308A1169
:100C0800A0268A110800831603130F178F160F16D4
:100C180091018312031319159914191410308500C2
:100C2800870183160313850120308700831203137D
:100C380091111612161317131615333093009717C0
:100C48001716961608003D2E720883120313FF002C
:100C5800710884008A1500258A118A11B7258A111E
:100C68000130F1070318F20AF300F31F3C2EF203D8
:100C78003D2E720883120313FF00710884008A1541
:100C880000258A110038031D4A2E4B2E282E4C2E83
:100C98000800831203130715662E2108FF00200899
:100CA80084008A1500258A118A11E4268A110130E8
:100CB80083120313A0070318A10AFD00FD1F652E68
:100CC800A103662E831203132108FF002008840065
:100CD8008A1500258A110038031D732E742E512E93
:100CE800752E0800F401F501792E701C7C2E7D2EDE
:100CF800832E7208F4070318F50A7308F507013004
:100D08000310F20DF30DFF3E031D842E0130031076
:100D1800F10CF00CFF3E031D8B2E71087004031DAF
:100D2800962E972E792E982E7508F101F1077408E2
:100D3800F001F0079F2E0800F1008312031305113C
:100D4800F201F3017308803AFF0080307F02031D2F
:100D5800AF2E08307202031CB22EB32EB52EE02E31
:100D6800E02E7108F0007203FF3A073E013EBE2EE6
:100D78000310F00CFF3E031DBC2E7018C42EC82EA5
:100D8800831203138714CB2E8312031387100710C3
:100D980007140130F2070318F30A0030F307730849
:100DA800803AFF0080307F02031DDC2E083072027B
:100DB800031CDF2EE02EB52E831203130515080041
:100DC800FC0020307C02031CEA2EEB2EF22E803031
:100DD8007C02031CF02EF12EF72EF22E2030F600A6
:100DE8007608FC00F72EFA01FB017B08803AFF0029
:100DF80080307F02031D022F05307A02031C052F65
:100E0800062F082F462F462F7C08E03EF000FF30C3
:100E180003180030F1000530F2000030F3008A11A9
:100E280076268A111230F6008D30F70070087607A2
:100E3800F80071080318710A7707F9007A0878072B
:100E480084007B0803187B0A790783120313FF00C9
:100E58008A1500258A118A11A0268A110130FA07FD
:100E68000318FB0A0030FB077B08803AFF0080303C
:100E78007F02031D412F05307A02031C442F452FA2
:100E8800082F462F00308A11A0268A1108008A11DF
:100E980007268A118A11E7258A11F4010314F40D33
:100EA80001308A11D5258A114A3083120313A00014
:100EB8008F30A1008A114D268A11953083120313B1
:100EC800A0008F30A1008A114D268A117730831235
:100ED8000313A0008F30A1008A114D268A113B30E0
:100EE80083120313A0008F30A1008A114D268A11A6
:100EF800683083120313A0008F30A1008A114D2699
:100F08008A11863083120313A0008F30A1008A1142
:100F18004D268A118F2F83120313051A942F952FAC
:100F28008F2F962FB130F1008F30F2008A112726CB
:100F38008A11F230F1008E30F2008A1127268A11C8
:100F4800A430F1008F30F2008A1127268A1116305A
:100F5800F1008F30F2008A1127268A11F401031458
:100F6800F40D01308A11D5258A11593083120313E3
:100F7800A0008F30A1008A114D268A112C308312CF
:100F88000313A0008F30A1008A114D268A112C303E
:100F980083120313A0008F30A1008A114D268A11F5
:100FA8002C3083120313A0008F30A1008A114D2624
:100FB8008A112C3083120313A0008F30A1008A11EC
:100FC8004D268A112C3083120313A0008F30A10004
:100FD8008A114D268A11F4010314F40D02308A1186
:100FE800D5258A118A11C3258A118A11E4268A1106
:080FF800F62FF62F8A110028E4
:101A0000FF1B0A2D83137F1883170008840A03190C
:101A1000FF0A08007F087F398A000408840A031936
:101A2000FF0A8200003400340034003400340034F3
:101A300000344F34003400340034073400340734A9
:101A4000003414347F3414347F34143424342A346E
:101A50007F342A3412342334133408346434623427
:101A60003634493455342234503400340534033488
:101A70000034003400341C34223441340034003447
:101A8000413422341C340034143408343E340834D5
:101A90001434083408343E34083408340034003434
:101AA00050343034003410341034103410341034C6
:101AB000003460346034003400342034103408348E
:101AC000043402343E345134493445343E34003415
:101AD00042347F3440340034423461345134493428
:101AE00046342134413445344B34313418341434C1
:101AF00012347F3410342734453445344534393476
:101B00003C344A3449344934303401347134093472
:101B100005340334363449344934493436340634D0
:101B20004934493429341E340034363436340034D0
:101B3000003400345634363400340034083414345D
:101B4000223441340034143414341434143414342E
:101B50000034413422341434083402340134513412
:101B60000934063432344934593451343E347E34E5
:101B70001134113411347E347F34493449344934BA
:101B800036343E3441344134413422347F3441349C
:101B9000413422341C347F3449344934493441348B
:101BA0007F3409340934093401343E344134493432
:101BB00049347A347F340834083408347F340034AC
:101BC00041347F34413400342034403441343F3494
:101BD00001347F3408341434223441347F344034A7
:101BE0004034403440347F3402340C3402347F3487
:101BF0007F340434083410347F343E34413441346B
:101C000041343E347F3409340934093406343E34D7
:101C10004134513421345E347F3409341934293449
:101C2000463446344934493449343134013401347A
:101C30007F34013401343F344034403440343F3445
:101C40001F342034403420341F343F34403438347F
:101C500040343F3463341434083414346334073468
:101C6000083470340834073461345134493445340D
:101C7000433400347F3441344134003455342A3401
:101C800055342A3455340034413441347F340034DF
:101C900004340234013402340434403440344034D7
:101CA00040344034003401340234043400342034ED
:101CB00054345434543478347F34483444344434C1
:101CC000383438344434443444342034383444349C
:101CD000443448347F34383454345434543418340D
:101CE00008347E340934013402340C345234523412
:101CF00052343E347F3408340434043478340034AD
:101D000044347D34403400342034403444343D3451
:101D100000347F34103428344434003400344134E7
:101D20007F34403400347C34043418340434783440
:101D30007C3408340434043478343834443444343F
:101D4000443438347C3414341434143408340834AF
:101D50001434143418347C347C340834043404349B
:101D600008344834543454345434203404343F3424
:101D70004434403420343C344034403420347C34C7
:101D80001C342034403420341C343C34403430344F
:101D900040343C34443428341034283444340C3433
:101DA0005034503450343C344434643454344C341F
:101DB00044340034083436344134003400340034C0
:101DC0007F34003400340034413436340834003475
:101DD000083408342A341C34083408341C342A34B7
:101DE00008340834573449345A346E346534743402
:101DF0002034533465347234693461346C342D3496
:101E000074346F342D34453474346834653472342A
:101E10006E3465347434203447346134743465343A
:101E20007734613479340D340A34003450347234E8
:101E300065347334733465346434203441344E343F
:101E40005934203462347534743474346F346E34DD
:101E500073340D340A3400342034203420342034D8
:101E600020342034203420342034203420342034D2
:101E7000203420340034473461347434653477348A
:101E80006134793420342034203420342034203418
:101E900020340034573445344C3443344F344D34BB
:101EA000453421342034203420342034203420346C
:101EB00000345234653463346534693476346534BF
:101EC0003A34203420342034203420342034003478
:101ED000423479342034493464347234693473348C
:101EE000203420342034203420342034003474341E
:101EF0006F342D34453474346834653472346E3440
:101F000065347434203420342034003420342034B8
:101F1000503472346534733473346534643420342B
:101F200053345734203420340034573449345A342D
:101F30006E34653474342034533465347234693407
:101F400061346C342D3400344234793420344934D3
:101F500064347234693473340D340A340D340A3401
:101F60000034573445344C3443344F344D344534C5
:081F700021340D340A34003461
:02400E00E400CC
:00000001FF
